:020000040802F0
:1000000000C00120E9F80208E7F80208E5F8020854
:10001000E5F80208E5F80208E5F80208000000002B
:10002000000000000000000000000000E7F80208E7
:10003000E7F8020800000000E7F80208E7F8020805
:10004000E5F80208E5F80208E5F80208E5F8020814
:10005000E5F80208E5F80208E5F80208E5F8020804
:100060001D2C0208E5F80208E5F80208E5F8020888
:10007000E5F80208E5F80208E5F80208E5F80208E4
:10008000E5F80208E5F80208E5F80208E5F80208D4
:10009000E5F80208E5F80208E5F80208E5F80208C4
:1000A000E5F80208E5F80208E5F80208E5F80208B4
:1000B000950D0208E5F80208E5F80208E5F80208DF
:1000C000E5F80208E5F80208E5F80208E5F8020894
:1000D000E5F80208E5F80208E5F80208E5F8020884
:1000E0003D2C0208E5F80208E5F80208E5F80208E8
:1000F000E5F80208E5F80208E5F80208E5F8020864
:10010000E5F80208E5F80208A10D0208E5F8020882
:10011000E5F80208E5F80208E5F80208E5F8020843
:10012000E5F80208E5F80208E5F80208E5F8020833
:10013000E5F80208E5F80208E5F80208A19E0208C1
:10014000819E0208919E0208E5F80208E5F802087F
:10015000E5F80208E5F80208E5F80208E5F8020803
:10016000E5F80208E5F80208E5F80208E5F80208F3
:10017000E5F80208E5F80208E5F80208E5F80208E3
:10018000E5F80208E5F80208E5F80208E5F80208D3
:10019000E5F80208E5F80208E5F80208E5F80208C3
:1001A000E5F80208E5F80208E5F80208000000009A
:1001B0002DE9F04FB44FDFF834A33B68B34EB44C95
:1001C000B44DDFF82C832DED028B07EE903ADAED7B
:1001D000008AF7EE006AB8EEE77AC6EEA87A85B034
:1001E000B4EEE77AF1EE10FA40F33B81D4E9000176
:1001F00010F020FA98ED007AD5ED006A96ED008AAD
:1002000007EE900ABEEEE97A67EEA87A8DED007AE5
:10021000B0EE677AF0EE667ABEEEE97AFEEEE97A43
:10022000BEEEE98A17EE102A18EE103A17EE901A71
:10023000994802F04FFE00233B6003F041FF10B1EC
:10024000286803F035FFDFF8AC92DFF8ACB2934FCB
:1002500003F0B4FFD9F80030CBF80030904B914A4E
:100260001A60914A91491160386003F0A7FF03902A
:1002700003F0C0FF0246D8F8000001902868884BC0
:1002800000901B6803998A4806F04AF9894BD9F80F
:1002900000001A68884B196804F04EFDDBED007A07
:1002A000F5EEC07AF1EE10FA15DD99ED007A67EE01
:1002B000877AF5EEC07AF1EE10FA0CD5D4E9000198
:1002C00010F0B8F99AED007A7C4B07EE900A67EED1
:1002D000877AC3ED007AD7ED007AF5EEC07AF1EEB9
:1002E00010FA38DD03F06AFF97ED007A07EE900A06
:1002F00067EE877AF5EEC07AF1EE10FA2BD5D4E9E5
:10030000000110F097F99AED007A6D4B6D4A07EEF7
:10031000900A67EE877A93ED007AC3ED007A674B17
:10032000D3ED006A37EEC77A77EEE67A82ED007A8F
:10033000C7EE876AC3ED007A76EEA67A17EE900ACA
:100340000FF008FD4AA3D3E900230FF05BFD10F086
:1003500051F85D4B18605D4B5D4FD3ED008A97ED12
:10036000008AC8EE887A17EE900A0FF0F3FC42A3D9
:10037000D3E900230FF046FD8046DAF800008946F5
:100380000FF0E8FC02460B46404649460FF03AFDA6
:100390008046306889460FF0DDFC02460B46404639
:1003A00049460FF079FB10F025F8306018EE900AFE
:1003B0000FF0D0FC30A3D3E900230FF023FD8046DB
:1003C00018EE100A89460FF0C5FC02460B4640465F
:1003D00049460FF041FE2AA3D3E900230FF012FD96
:1003E00010F008F801465D2001F04CFBD5ED006AE5
:1003F0009FED387AC6EE877A9FED377A67EE877A77
:1004000097ED007AC7EE877A17EE900A0FF0A2FCFC
:1004100019A3D3E900230FF0F5FC0FF0EBFF014621
:100420005E2001F02FFB2D4A136847F22F518B42BB
:100430002B4918DC013313602A4BD1ED007A93ED80
:10044000007A77EE877AD4E90032013342F1000274
:10045000C4E90032C1ED007A05B0BDEC028BBDE805
:10046000F08F0133E8E60023DFED1F7A1360EAE73F
:10047000112D4454FB210940C3F5285C8FC2D53FA0
:10048000CDCCCCCCCCCC0C40F0160020101D0020E4
:10049000A81D002058120020100D0308E01C0020A9
:1004A000901D002000005743941D0020B842F842E0
:1004B000241700209012002094120020D81C002045
:1004C000CC1C0020D01C0020D41C00200C1D0020BF
:1004D0004412002000007A4400006145001D002005
:1004E000041D0020B01D002000000000601200204C
:1004F0005C12002098120020DC1C0020818800681B
:1005000008B50EF09EFC003818BF012008BD0000A1
:1005100010B54D4B2DED028B998818680EF094FCA8
:100520000EF0E8FC03F00AFB484B0446186801F0A3
:100530004CFA044407EE904AF8EEE77AB2EE047AF9
:10054000C7EE877A8E2017EE901A01F09BFA02F020
:1005500081F80146752001F087FA03F065FA01463B
:10056000662001F081FA3A4B197811F0FB0416D19C
:100570003848FFF7C3FF00285AD03748FFF7BEFFBF
:10058000002855D03548FFF7B9FF002850D0214644
:100590008A2001F069FA02218B2001F065FA0FF040
:1005A000F9F932280BD94D2001F040FA002841D04A
:1005B000852001F04FFA2A4B1A781043187008F082
:1005C0000EFB08F0CFFE274B6820196801F05AFA9D
:1005D000682001F033FA08EE100A01F0D5FE224B34
:1005E00007EE900A1B88F8EE677A07EE103A67EE7E
:1005F000887AB8EEC77AC7EE877A17EE900A0FF0BE
:10060000A9FB0FA3D3E900230FF026FD0FF0F2FEA4
:1006100001466D2001F036FA592001F007FA58B969
:10062000BDEC028B114BBDE81040186809F056BCB8
:100630000121ADE70120BEE7BDEC028B10BD00BF7C
:100640001B0DE02D90A0F63FD019002018190020B6
:100650001C190020181A0020301A0020101A00203F
:1006600004190020901D00205C1903080C190020BB
:100670002DE9F0412DED048B652082B001F0D6F913
:100680000446402001F0D2F9064609F0B7F8AB4B1A
:10069000AB4FD3ED008A0FF07DF903F091F96420A0
:1006A00001F066FF08F0D2FC08F034FB08F090FF80
:1006B000A44B93ED008A01F0B5FF0146732001F0D1
:1006C000D3F901F0A9FF01467D2001F0CDF9012CFD
:1006D0007ED13B6801330BD1DFED9B7A88EE277A20
:1006E000DFED9A7A67EE277A17EE900A0AF0F2FAAF
:1006F0009748FFF703FF002840F0B980954B1D781D
:10070000023D18BF01252D019348FFF7F7FE8046F3
:10071000782001F08BF902F0FFFD45EA80154F20AB
:1007200001F08CF907EE900A88F00108F4EEE87AFF
:100730005FFA88F8F1EE10FA45EA48158CBF0123FC
:100740000023ADB2192045EA830501F077F907EEE1
:10075000900AF4EEE87AF1EE10FA804B00F389800B
:100760001B7845F008010BB941F40071672001F0D6
:100770007BF9784B1B78032B40F04481002C40F030
:10078000CA8032233B6008F0A9FA002003F054FA33
:10079000734B4FF0FF321A60724A01231370724A92
:1007A000126882F87C300FF0F5F801468D2001F0D8
:1007B0005BF9592001F03AF9012840F058816B4B60
:1007C000186802B0BDEC048BBDE8F04109F086BBAF
:1007D000E31E012B8CD83B68013389D1412001F005
:1007E0002DF99FED5A9A624B019308EE100A7E2074
:1007F0008DED009A01F022F90546372001F01EF92F
:100800006A460146284602F089FF18EE901A01A8B0
:1008100002F0E4FF9DED017ADDED007A554BB1EE7B
:10082000477AB4EE677AF1EE10FA48BFF0EE477AF5
:1008300028EE278ACDED017AC8EE097A93ED007A89
:10084000F4EEC77AF1EE10FA0AD4F7EE006A37EE4A
:10085000267AF4EE477AF1EE10FA58BFF0EE477AB6
:1008600017EE900AC3ED007A03F0A8FA40E70025DE
:100870004AE71B782946002B3FF476AF002D7FF422
:1008800075AF872001F0E6F8E8B1882001F0E2F8C2
:10089000C8B18C2001F0DEF8A8B9022E13DD042EB9
:1008A0002CD1502001F0CAF807EE900AF4EEE87A55
:1008B000F1EE10FA24D8274B1B78052B35D1032CE9
:1008C0002BD1002135E0842001F0C4F8002853D159
:1008D000602001F0BFF800284ED1512001F0A6F8A9
:1008E00003280DD103F008F90146002844D154B97A
:1008F0004FF48071672001F0B7F842E7032EDAD099
:10090000002CF5D00021672001F0AEF8114B1B78C8
:10091000032B40F0A880264651E0042CD1D00020C3
:1009200003F04CFA304603F087F9002CC9D14FF49C
:100930008071672001F098F82AE000BF901D002028
:10094000F41600205812002000007A440000C8422B
:10095000181A00201C190020301A00200419002049
:10096000EC1B0020A4120020081900200C19002004
:100970000000C8C2F81600200021602001F074F8C1
:10098000002C3DD14FF48071672001F06DF80126F5
:10099000394B998818680EF04FFA384B99881868C7
:1009A0000EF04CFA3146652001F05EF803F030F8A5
:1009B000334B1B78032B02D0022E27DC01263B6829
:1009C00063BB304A1370304A1268002082F87C30D2
:1009D0000AF080F9002002F0B9FD01F095FD3046E3
:1009E00003F02AF9254B998818680EF027FA274B4F
:1009F000998818680EF022FA4FF0FF333B60D2E678
:100A00000021C1E7022C7FF7B9AE26468C2001F009
:100A100021F80028D3D0002165206CE70A2B1FD1D4
:100A20001B4802F0E8FA04461A4802F0E4FA0146CC
:100A3000204603F0A1F903F0C1FB08EE100A03F011
:100A4000D9FB07EE900AFDEEE77A17EE901AFDEE5D
:100A5000C87A17EE900A03F08FF93B68013BCDE7A7
:100A6000002BFBDC9FE6022C7FF755AFCDE702B0F1
:100A7000BDEC048BBDE8F081F0190020C8190020FE
:100A80001C190020A412002008190020D8190020E9
:100A9000A41A0020A01A00203A2870B535D82928B9
:100AA00037D9994B2A38C0B2C340DB0731D539203A
:100AB00000F0C4FF954B964C18603A2000F0BEFF42
:100AC000944B1860342000F0B9FF2060332000F010
:100AD000B5FF914B1B682360904B1A68904B2A20FE
:100AE0001A6000F0ABFF8F4B186070BD0A2810D859
:100AF000DFE810F0E6000F00F3000F000F000F001A
:100B00000F000F000F00D800DF005838C3B20A2BC7
:100B1000ECD9142000F084FF03F0E2F8082000F084
:100B200085FF0446092000F081FF7F4B94FBF0F421
:100B30000B201C6000F07AFFC0B202F057F80D20C5
:100B400000F074FF80B201F071FF0A2000F06EFF28
:100B500080B201F007FD1C2000F068FF734D744C5B
:100B600028601D2000F062FF20601E2000F05EFF64
:100B700068601F2000F05AFF6060292000F05EFFCF
:100B80006C4B1860272000F059FF6B4B1860282031
:100B900000F054FF694B18602D2000F04FFF684BA8
:100BA00018602A2000F04AFF5E4B18602B2000F0EE
:100BB00045FF644B1860392000F040FF534B18602C
:100BC0003A2000F03BFF534B1860472000F02EFF07
:100BD0005D4B18604A2000F031FF5C4B18604B20E1
:100BE00000F02CFF5A4B18604C2000F01FFF594BAF
:100BF0001860482000F022FF574B18604E2000F08C
:100C00001DFF564B1860302000F010FF544B186049
:100C10002F2000F00BFF534B1860312000F00EFF27
:100C20009FED517A514B07EE900A67EE877A32209A
:100C3000C3ED007A00F002FF9FED4D7A4D4B07EEB9
:100C4000900A67EE877A3420C3ED007A00F0F6FE52
:100C50002F4B1860332000F0F1FE314B1860352027
:100C600000F0ECFE444B18603C2000F0DFFE434BEC
:100C700018603B2000F0DAFE414B1860414B1B78B6
:100C8000042B3FF432AF552000F0D0FE03284FF480
:100C900000734FF000022BD1BDE870403A480121AB
:100CA0000EF0DBB8612000F0BBFEBDE8704002F042
:100CB0002FBF622000F0B4FEBDE8704002F022BFFA
:100CC000324B1C68236858201D6800F0AFFE2B468D
:100CD000C1B22046BDE8704018472D4B5A201C6811
:100CE00000F0A4FEC1B22046BDE8704009F00CBE81
:100CF000254802210EF0B1F8BDE8704022484FF4BB
:100D0000007202210EF0C9B801860100D01B00203C
:100D1000AC1B0020CC1B0020701200206C120020A5
:100D2000A81B0020F81B0020601C00200C1C0020C9
:100D3000041C0020001C0020FC1B0020C81B0020FD
:100D4000941B0020F41B0020F01B0020E41B00205B
:100D5000E81B0020E01B0020D81B0020D41B002033
:100D6000B81B0020BC1B0020A4707D3FB41B0020DA
:100D7000AE47813FB01B0020A41B0020981B002021
:100D80009C1B00201C1900200004024010190020A8
:100D900008190020014B186800F0EABD181900205E
:100DA000014B186801F0F0B914190020FEE70000AB
:100DB00080B5ADF5026D00F027F900F065FC00F09C
:100DC0009FF9704E704C307000F072FC00F02AFCFD
:100DD00002F046FA012002F0F3FD122000F03AFE84
:100DE00000F08CFB0146812000F03EFE674B188826
:100DF00001F084FB4FF40061084602F0BDFF337838
:100E00006349042B02AF18BF4FF08041384600F011
:100E100059FD0DF130085F4B5F491F60404601F0FE
:100E200053F95E4B5820C3F8008000F0FFFDC1ADC0
:100E300000230DF5AC69C2B25949284608F0A6FF57
:100E40000DF1580A01222946484609F083FC4A461A
:100E50002946504609F03CFD524BC4F80090DFF89B
:100E600064911D602846C9F800A007F093FE4E4B20
:100E700022681A604D496422384600F043FD4C490F
:100E80000A22384600F03EFD00224A49404601F061
:100E900049F9494B998818680DF0CEFF0023474A5D
:100EA000474936A800F0BCFE337813B936A800F0E5
:100EB00088FF0421632000F0D7FD3178642000F022
:100EC000D3FD64217A2000F0CFFD102000F0AEFDAC
:100ED0000B2807DC102000F0A9FD00F10A0110200A
:100EE00000F0C2FD2A2000F09BFD002806DD2A202C
:100EF00000F096FD41422A2000F07AFD1D2000F00E
:100F0000F1FD05691D2000F08BFD854203DA2946BD
:100F10001D2000F0B1FD2068782109F07EF82068DE
:100F2000792109F07AF82068822109F076F82068A2
:100F3000742109F072F87A21206809F06EF88F2088
:100F4000FFF7AAFD5A20FFF7A7FD522000F082FD0F
:100F50000446122000F07EFD0146204600F00CFB06
:100F60004FF0000436A88DF8074000F0C3FFD9F811
:100F700000004369002BF5D10DF10701043007F0A3
:100F80000DFBEFE71C1900200C1900205C19030869
:100F90000008004018190020000C0040141900201F
:100FA0000064004010190020381E002011050208BE
:100FB00071060208B1010208D8190020D8180308E8
:100FC000004800400819002008B5054804F0ECFE70
:100FD000044804F013FDBDE80840034804F0E2BAF9
:100FE0002417002000170020FC16002008B5044834
:100FF00004F0B0FCBDE80840024806F0D5BF00BFD1
:10100000FC1600202417002008B523480EF0BAF87B
:101010004FF0E023214AC3F80C2D4FF4C0600DF0CF
:1010200071FF40F201600DF06DFF40F202600DF0C3
:1010300069FF40F203600DF065FF40F612000DF00D
:1010400061FF4FF408600DF05DFF4FF400600DF09C
:1010500059FF40F601000DF055FF40F602000DF07B
:1010600051FF40F603000DF04DFF40F215600DF00A
:1010700049FF40F688000DF045FF40F20C600DF08E
:1010800041FF40F619000DF03DFFBDE8084040F675
:101090008C000DF037BF00BFA83303080003FA052A
:1010A00073B5154D154E00244FF4006322462021E0
:1010B000CDE90034284623460EF0F0F828460EF01D
:1010C000DFF828460EF0E5F82823224630460221B4
:1010D0000DF0C3FE3046282205210DF0DEFE30461D
:1010E0001023224621460DF0B8FE284602B0BDE886
:1010F00070400EF0B9B800BF00300140000402405B
:1011000038B5684D68496948002401222C7001F007
:10111000B3FF65496648224601F0AEFF6249654863
:10112000032201F0A9FF60496348022201F0A4FFF5
:101130005D496248042201F09FFF61496148032232
:1011400001F09AFF5E496048052201F095FF5F4972
:101150005F48224601F090FF5C495E48022320224E
:1011600001F0F8F859495C480223402201F0F2F8F6
:1011700053495A480223042201F0ECF850495848D8
:101180000123082201F0E6F84D49564802231022B7
:1011900001F0E0F8444954480223402201F0DAF813
:1011A000414952480223802201F0D4F8474950486F
:1011B00002234FF4805201F0CDF83B494D482346BD
:1011C0004FF4807201F0C6F802231A463C494A489F
:1011D00001F0C0F83449494802234FF4007201F08D
:1011E000B9F83149464804234FF4005201F0B2F8EF
:1011F000334944480423012201F0ACF82A4942480B
:1012000004234FF4006201F0A5F830493F4804235D
:10121000022201F09FF824493D4804234FF48052F4
:1012200001F098F820493B4804234FF4806201F014
:1012300091F81D49384804234FF4806201F08AF880
:101240002249364804234FF4007201F083F8042346
:1012500015493348202201F07DF82B78052B09D859
:10126000DFE803F003080813600C1549184806224C
:1012700001F002FF01F04EFE287838BD0A491B48F4
:101280000123802201F066F8F4E707491948042396
:101290004FF4807201F05EF80C491E4802234FF4AF
:1012A0000072EFE71C19002000080240BC1A002061
:1012B000B81A0020B41A0020B01A0020AC1A00207E
:1012C00000000240A81A0020A41A002000040240D6
:1012D000A01A0020481A0020401A0020381A0020C6
:1012E000301A0020281A0020201A0020181A002086
:1012F000101A0020081A0020001A0020F8190020F7
:10130000F0190020E8190020E0190020D819002069
:10131000D0190020C8190020C0190020B8190020D9
:10132000B019002055495648002201F0A5FE534946
:101330005448012201F0A0FE50495348022201F016
:101340009BFE4E495148032201F096FE4B495048FE
:10135000042201F091FE4F494F48012201F08CFE1A
:1013600046494E48052201F087FE4A494C48002272
:1013700001F082FE47494B4802234FF4007200F00F
:10138000E9FF4449484802234FF4807200F0E2FF2D
:10139000404946480223802200F0DCFF3D49444892
:1013A0000223402200F0D6FF3A494248022320227D
:1013B00000F0D0FF02231A4636493F4800F0CAFF2A
:1013C00002231A4633493D4800F0C4FF31493C48E6
:1013D00001234FF4805200F0BDFF3A493A480223FE
:1013E0004FF4004200F0B6FF3649384802234FF46C
:1013F000004200F0AFFF3349354802234FF400426A
:1014000000F0A8FF3349344804234FF4004200F0B1
:10141000A1FF1A4931480423012200F09BFF29490A
:101420002F4804234FF4804200F094FF19492D48BF
:101430000423102200F08EFF26492B4804234FF48A
:10144000005200F087FF1F49284804234FF48042D0
:1014500000F080FF1B49264804234FF4804200F02F
:1014600079FF1849234804234FF4804200F072FFAB
:101470001449214804234FF4804203E7000002404E
:10148000BC1A0020B81A0020B41A0020B01A00209C
:10149000AC1A002000040240A81A0020A41A002060
:1014A000A01A0020381A0020201A0020281A002034
:1014B000401A0020481A0020301A0020181A002074
:1014C000101A0020000C0240081A0020001A002008
:1014D000F819002000080240F0190020E819002047
:1014E000E0190020D8190020D0190020C8190020C8
:1014F000C0190020B8190020B019002038B54FF4E9
:10150000E06105461A480DF09CFC4FF4604104462A
:1015100018480DF096FC0443A4B24FF4E0636DB19B
:101520000022114612480DF098FC002211484FF499
:10153000604311460DF091FC204638BD2A460C4808
:1015400002210DF08AFC0A484FF4E06201210DF0FF
:10155000A4FC2A4607484FF4604302210DF07DFCAD
:1015600004484FF4604201210DF097FCE4E700BF0E
:10157000000002400004024070B596B005460C46DB
:101580000DF052FA224E00210644142201A800F068
:10159000DAFE0122ADF80A208DF812201D4A1E4BFA
:1015A00012780193042AA3F580630BBF4FF4004126
:1015B0004FF4005110220222B60203938DF813500B
:1015C000ADF80810ADF810203CB91449144A07933F
:1015D000CDE905124FF4F03308930DF009FA142108
:1015E00001A80DF013FA1590336D83420DD00DF064
:1015F000A7FB01AC0025701954F8041B04350DF04D
:10160000C7FB542DF7D10DF0A9FB16B070BD00BF7C
:10161000FDFF41001C1900200008024000000240AC
:101620000007010008B519200EF0D8F90021192093
:101630000EF0E0F918200EF0D1F9002118200EF07C
:10164000D9F908200EF0CAF9002108200EF0D2F9CD
:101650000C4B1B78042B08D11E200EF0BFF9E021A3
:101660001E20BDE808400EF0C5B932200EF0B6F9D4
:10167000102132200EF0BEF91C200EF0AFF9E0214F
:101680001C20EEE71C19002008B504200EF088F994
:10169000064B18686423B0FBF3F001380EF074F9C0
:1016A0000EF08FF9BDE808400EF084B9BC1200209E
:1016B00038B5804C804D2378042B14BF28464FF05A
:1016C00080400DF034FE2378042B14BF28464FF0E1
:1016D000804000210DF012FE2378042B14BF284611
:1016E0004FF080400DF005FE2378042B14BF2846F0
:1016F0004FF08040062200210DF029FE2378042BB4
:1017000014BF28464FF08040062202210DF01FFE34
:101710002378042B14BF28464FF080400622042172
:101720000DF015FE23780622042B14BF28464FF037
:10173000804011460DF00BFE2378042B14BF284681
:101740004FF0804000210DF0C8FE2378042B14BF19
:1017500028464FF0804002210DF0BFFE2378042B75
:1017600014BF28464FF0804004210DF0B6FE2378C8
:10177000042B14BF28464FF0804006210DF0ADFE2B
:101780002378042B14BF28464FF0804000210DF031
:10179000BEFE2378042B14BF28464FF08040022160
:1017A0000DF0B5FE2378042B14BF28464FF080407F
:1017B00004210DF0ACFE2378042B14BF28464FF013
:1017C000804006210DF0A3FE2378042B14BF284689
:1017D0004FF0804000210DF0E4FE2378042B14BF6D
:1017E00028464FF0804002210DF0DBFE2378042BC9
:1017F00014BF28464FF0804004210DF0D2FE23781C
:10180000042B14BF28464FF0804006210DF0C9FE7E
:101810002378042B14BF28464FF0804001210DF09F
:101820006DFF2378042B14BF28464FF08040002121
:101830000DF087FD2378052B29D14FF40051284660
:101840000DF083FD23781C48042B08BF4FF0804027
:101850000DF068FD2378042B21D14FF40043174885
:10186000002202210DF0F9FA14484FF4004202213F
:101870000DF013FB00221248082302210DF0EDFAAF
:101880000822BDE838400E4802210DF006BB042BAB
:101890004FF4805114BF28464FF08040D0E700221B
:1018A00007484FF4607302210DF0D7FA4FF46072CD
:1018B000E7E700BF1C1900200008004000000240BC
:1018C0000004024038B50C460546016208460DF09A
:1018D00010FD20460DF01CFD094B2046196847F20B
:1018E0003053B1FBF3F101390DF02BFD20464FF6DB
:1018F000FF710DF02AFD00236B62284638BD00BF42
:10190000B8120020F8B5436A032B04460E4615466C
:101910002ADC006A154F0DF00AFD636A206AF95C43
:1019200001220DF014FD05EB8505636A206A44F879
:10193000236005EB850503F10801AA0092B224F8A3
:101940001120F95C0DF09CFE636A206A0221994027
:101950000DF0B8FC206A00210DF0D6FE206A0DF0D3
:10196000E1FC636A01336362F8BD00BF330D030815
:101970002DE9F041044600F1100600250227D4E9C4
:101980000803AB4204DCBDE8F0411E210DF0A4BC0D
:1019900007FA05F10DF09AFCA0B1206A0DF0B2FE35
:1019A000236A32883433804653F825100A4443F8BA
:1019B000252054F825309847206A0DF0A3FEA0EBAF
:1019C0000800308101350236D9E7002170B500F1F9
:1019D0000E03446A0A2508468C4200DC70BD5A8911
:1019E00033F8026F6A430131B2FBF6F21044F3E7B9
:1019F000094A10B51C2404FB0022D4688C4209DC7F
:101A000012698A4206DB054A42F82010FFF744F8C3
:101A1000002010BDFF20FCE7440200200800002049
:101A2000014B53F82000704708000020024B53F888
:101A300020004013704700BF08000020044B53F8FB
:101A4000200007EE900AFAEEE97A17EE900A704746
:101A500008000020034B53F820004013431E584257
:101A60005841704708000020024B490343F82010FA
:101A7000704700BF08000020014B43F8201070475A
:101A80000800002007EE901AFEEEE97A024B17EEEE
:101A9000902A43F8202070470800002070B5084DB8
:101AA000064600246868314600F0ACFB08B9E0B295
:101AB00070BD01348F2C05F11C05F3D19020F7E7A0
:101AC00044020020064A0023118B814201D1D8B282
:101AD000704701338F2B02F11C02F5D19020704723
:101AE00044020020024B1C2202FB0030704700BF62
:101AF00044020020064A07490023108B10B15069A8
:101B000041F8230001338F2B02F11C02F5D17047FD
:101B10004402002008000020014B1954704700BF08
:101B20001D190020024B1A5C11431954704700BF65
:101B30001D190020024A135C23EA01031354704765
:101B40001D190020014B185C704700BF1D190020B3
:101B5000024B1C2202FB0033987E70474402002097
:101B600000487047587B0100024B1A68024BC3F8CB
:101B7000302B7047141200204402002010B5044698
:101B8000A37D23B9A068BDE810400DF07FBE94F896
:101B90002030626ADB01234413440A2983F8A91028
:101BA00001D07F2A38D163682022197A58680CF056
:101BB00078FF18B994F82830002BF4D06368197AAC
:101BC00058680CF0CDFF626A63680132197A586870
:101BD00092B20CF0EAFF94F82020636804EBC21282
:101BE000197A5868A9320CF0CCFF63682022197A60
:101BF00058680CF047FF6368197A58680CF0A7FF23
:101C000094F82030B3FA83F35B0984F82030002382
:101C100084F82830636210BD01326262FBE7000085
:101C200070B50D4611461A465F4B036040F2011332
:101C300083820023C0E90633016180F8203001214E
:101C400043625A4B817580F8281004468560027300
:101C50004360032163681868A8420CD1544B606844
:101C60001C606AB9838A006902210DF0F6F8636886
:101C700018699A8A0DE0203301396360EAD1EDE7F3
:101C8000838B8069002202210DF0E7F86368986970
:101C90009A8B07210DF001F928464FF4E1310DF040
:101CA000B9FD284608210DF0CBFD284600210DF096
:101CB000D0FD28460C210DF0D8FD284600210DF05E
:101CC000CEFD002128460DF0D6FD28460DF0E9FD99
:101CD00028460DF0EBFD6368197A58680CF0ACFEED
:101CE00063684022197A58680CF0EFFE63682E1D75
:101CF000197A586832460CF03CFF63680022197A62
:101D000058680CF0FEFE63680022197A58680CF0DF
:101D1000ECFE6368197A58680CF0FFFE6368DA68B5
:101D2000197A58680CF00BFF6368597A58680CF000
:101D300083FE63680022597A58680CF0C6FE636817
:101D40003246597A58680CF014FF63680022597AB9
:101D500058680CF0D6FE63680022597A58680CF077
:101D6000C4FE6368597A58680CF0D7FE6368DA6875
:101D7000597A58680CF0E3FE636804F12902597A35
:101D800058680CF0FEFE63688022597A58680CF09F
:101D90000CFF63685868597A0CF0D9FE28460DF09C
:101DA00070FD204670BD00BFE4170308E817030864
:101DB000AC190020806820210DF08EBD80680DF0E8
:101DC00083BD10B50023837543680446197A5868AB
:101DD0000CF0C6FEA068BDE810400DF06CBD10B55B
:101DE00043680446597A58680CF0BAFE636880224A
:101DF000597A58680CF0D9FE63682022597A5868DD
:101E00000CF040FE6368BDE81040597A58680CF049
:101E10009EBE38B5437D04690D461BB9002420469B
:101E200038BD0834216821B1284600F0EBF90028BC
:101E3000F7D12368002BF2D1F0E738B505464C1EE8
:101E400014F8011F01B938BDA8680DF01FFDF7E7B0
:101E500010B50446084600F03FFA00F024FA237D4E
:101E6000227B8342636811D1012161755AB198695F
:101E70009B8B012100220CF0F0FF20460A49BDE8AF
:101E80001040FFF7DABF18699B8AF2E700216175FD
:101E90003AB198699B8B0022BDE8104011460CF0C6
:101EA000DCBF18699B8AF6E7CA2B030838B50446DD
:101EB000084600F011FA0378302B637D14BF4FF40D
:101EC00061254FF4E1353BB108492046FFF7B5FFE6
:101ED00007492046FFF7B1FFA06829460DF09AFC9C
:101EE000A0680021BDE838400DF0B3BCCA2B030840
:101EF000951703082DE9F04143680446597A58685C
:101F00000CF04CFE0546C0F1800610B92046FFF7E4
:101F100066FFE369B34245DB002E7EDD651B95F865
:101F2000A8300A2B01D00D2B6BD1A319002204F18C
:101F3000290783F829202021E261384600F080F942
:101F400090F800800546B8F1000F34D10A213846D8
:101F500000F076F984F8A98105462B7823B90D2184
:101F6000384600F06DF9054600232B702C49A3611B
:101F7000384600F047F920BB04F2A9112046FFF7CC
:101F800067FF2046FFF72BFFA369002B45D0A06811
:101F90000DF09EFCA36904F2A91120465B68BDE820
:101FA000F04118475A1C2344E26193F82910A068B5
:101FB0000DF06CFCADE7411C04F2A91000F030F903
:101FC000CBE71849384600F01DF928B904F2A911E9
:101FD0002046FFF76BFFD4E739462046FFF719FF8D
:101FE000A0612046FFF7FBFEA369002BCFD1012E95
:101FF00013D0637D8BB120460B49BDE8F041FFF75C
:102000001CBF94F82930212B07D1A3692BB120469E
:10201000FFF7E5FE0023E361BCE7BDE8F08100BF08
:10202000AC170308B7170308C0170308034B1B6856
:102030001A68C1B212681846104700BFAC190020D8
:1020400001F00EBD044B0548D3F8181AD3F8142A32
:10205000D3F8103A00F03EBF0070FF1F4818030885
:1020600008B565200021FFF7FFFCBDE808400148E6
:1020700000F030BF5318030808B5FFF73BFDBDE87B
:102080000840014800F026BF6618030806F086BA2B
:1020900010B5084600F020F900F005F906280446BE
:1020A0000BDC01466520FFF7DFFC601301F0C4FD87
:1020B0000348BDE8104000F00DBF0248F9E700BF3B
:1020C000781803088B18030838B50D4604460162DA
:1020D00008460DF00EF928460E4D0DF019F9284668
:1020E00000210DF02EF90C4BDFED0C7A93ED007A08
:1020F0000B4BB8EE477AD3ED006AE7EE267A284616
:10210000FCEEE77A17EE901A0DF01FF900236362D8
:10211000204638BD000C0040B8120020000000002E
:1021200060120020F8B5436A032B04460E4615469C
:1021300025DC1348134F0DF0FAF8636A1048F95C78
:1021400001220DF004F9636A0D48F95C00220DF0DC
:1021500097FA636A0A4844F8236003F108020221EF
:10216000994024F812500DF0ADF8054800210DF00B
:10217000CBFA03480DF0D6F8636A01336362F8BD09
:10218000000C0040501903082DE9F047DFF870906B
:10219000054600F1100600244FF002086B6AA342C6
:1021A00008FA04F70ADC394648460DF095F8013480
:1021B000042C06F10206F1D1BDE8F087104839463B
:1021C0000DF084F8C0B10E480DF09CFAA30003F1A5
:1021D00080433188D3F8342C0A44C3F8342C55F8A2
:1021E00024308246984706480DF08CFAA0EB0A008E
:1021F000308139460248D8E76B6AA342D7DCD2E780
:10220000000C0040431E013913F8010F11F8012F93
:1022100010B10AB19042F7D0801A18BF0120704760
:10222000013911F8013F0BB90370704700F8013B09
:10223000F7E7034600201A5C02B970470130FAE75D
:102240000346184613F8012B0AB18A42F9D17047A8
:10225000002970B518DA2D2300F8013B494201240A
:10226000034691FBF2F602FB161130311970311E54
:102270001D4603F10103F4DC00221A700246954268
:102280000AD8241A181904E004D1302303704170CD
:10229000012070BD0024E3E711782E7802F8016B6D
:1022A00005F80119EBE730B503782D2B11D101307A
:1022B0004FF0FF34431E00210A2501E005FB0121F8
:1022C00013F8012F303AD0B20928F7D904FB01F0F6
:1022D00030BD0124EEE7000010B5144C0278A2F1E5
:1022E0000A03DBB2162B014600F1010018D9AAB18E
:1022F0000846FFF79EFF0D4C013808448142024614
:102300000AD213780A3BDBB2162B00F1FF3003D858
:1023100044FA03F3DB07F1D500235370084610BDE0
:1023200044FA03F3DA07D9D5E2E700BFF6FFBFFFAF
:1023300010B50023934200D110BD51F8234040F85E
:1023400023400133F6E7013A00D2704740F8041BFE
:10235000F9E7000030B4044608462160A2805C1E04
:10236000E4B2032C9EBF064B195D064B15468ABF8F
:1023700000211A5D02222B4630BC0CF06EBD00BF5E
:102380005819030854190308014B1868704700BF17
:10239000541A0020024B4FF400421A80704700BFCD
:1023A000501A002070B50C1E05464FF064031EDA6B
:1023B000644261130646C4F30C045C432D2306F803
:1023C000013B64130A223046FFF742FF092C06EB5B
:1023D00000034FF02E0232549BBF30225A70581C1B
:1023E000981C0A222146FFF733FF284670BD61136F
:1023F000C4F30C045C4364130646E3E7F0B50378CA
:102400002D2B17D101304FF0FF3600244FF00A0C6E
:1024100002E00CFB04541846034613F8012BA2F10A
:102420003005EFB2092FF4D9AAB98C40144406FB49
:1024300004F0F0BD0126E8E78B4003EB650393FB56
:10244000F5F30CFB05F51A4410F8013F303BDFB201
:10245000092FF1D9E9E70A250022AC46F4E7B0F5E7
:102460007A7F034634BF0420082023FA00F0B0F539
:10247000005F70B538BF4FF40050DE0C5C030546BA
:1024800002460023204631460EF014FB2B18A5EB24
:102490005305012D4FEA5300F1D870BD0A4B18685F
:1024A0000A4B1B68C01A0A4B10B5C0F38C1140F3DD
:1024B00080441A688006002341EA44310EF0FAFA9B
:1024C000044B186010BD00BF581A0020601A00208D
:1024D000E81100205C1A0020014B1860FFF7DEBFF6
:1024E000601A002007EE900A034BFEEEE97AC3ED76
:1024F000007AFFF7D3BF00BFE8110020014B18603E
:10250000FFF7CCBF581A00200D4B0E4901221A705C
:102510000D4A4FF6FF73136000220A600B490A60F0
:102520000B490A600B490A600B4A4FF47A6111604B
:102530000A4A138053809380D3801381704700BF71
:10254000EF110020701A00208C1A00206C1A002055
:10255000801A0020641A0020681A0020921A0020B5
:1025600070470000014B1880704700BFEC1100203D
:1025700030B51A491A4C0B6822681A442260194A6D
:102580001278541E012C08D8584348BF0730164B08
:10259000C010186000230B6030BD033A022AFBD83C
:1025A000124A114C1268AAB983EAE372A2EBE372F1
:1025B00040F21C75AA420DDD504348BF0730002B86
:1025C0000B4B4FEAE000D4BF4FF0FF3201222060F6
:1025D0001A60DFE700232360DCE700BF781A0020E1
:1025E000741A0020EE110020801A0020681A0020C2
:1025F000641A0020014B1868704700BF801A002041
:10260000014B00221A607047741A0020014B1868B1
:10261000704700BF741A0020014B1868704700BF54
:10262000641A0020094B10B51C683C235C43084B1E
:102630001B78043B012B4FEA543404D80920FFF7E0
:10264000F5F994FBF0F4204610BD00BF801A00207D
:10265000EE110020014B1868704700BF841A00205B
:10266000844B1B883C2B70B5834D844C40F2D38047
:102670007D2B40F2D280B3F5005F03D8804B2B60F6
:102680001B68236040F201400CF049FC23687D4840
:102690007D49B1FBF3F101390CF053FE4FF6FF71A8
:1026A00078487A4C0CF051FE76480CF031FE7548B3
:1026B00004210DF09FF8734801210DF092F826785F
:1026C000002E40F0AC806F4870210DF09BF82B6815
:1026D0006C4819790DF07CF86D480123324631467B
:1026E0000CF0BBFB21782B6866485A79694DB1FA2A
:1026F00081F1490949000DF009F821786148B1FAE2
:1027000081F10122490991400DF028F821785D48B6
:10271000B1FA81F1490989000CF01EFF217859486E
:10272000B1FA81F1490949000DF04BF82378554879
:10273000002B14BF4FF400714FF400610CF0C2FD88
:1027400050480CF0F9FD01214E480CF0D7FF4D48E0
:102750000CF0E8FD23785048042B4FF000021ABF1C
:10276000284604234FF4804311460CF076FB23786F
:10277000042B14BF04204FF480400CF04FFA237850
:10278000002B55D1454810210CF0EAF92378002B95
:1027900051D1434A414810210CF0EBF92378414ACA
:1027A000002B4CD13D4810210CF0EBF923784FF46D
:1027B0000062002B46D1394810210CF0A2F9237891
:1027C0004FF40062002B40D1344810210CF08DF9F9
:1027D00023780522002B3BD1304810210CF0E5F97D
:1027E0002378002B37D12D4810210CF096F923784F
:1027F000002B33D1294810210CF098F9247884BBA0
:10280000264821460CF0A3F9244801222146BDE8C0
:1028100070400CF094B9244B31E7244B2FE7194852
:1028200050210CF0EFFF00222148C023114657E74A
:1028300020488821A8E7204A1E488821ACE71D4887
:102840008821B1E71B488821B7E71A488821BDE7EE
:1028500018488821C2E717488821C6E7154888210B
:10286000CAE7144805210CF072F91248012205212B
:10287000CDE700BF901A0020F01100209C1A002024
:10288000781903080004004000A24A041C19002023
:1028900000040240000C02400008024000640240B4
:1028A0003C040040921A00206819030870190308BC
:1028B00000000240006002403404004010B5154C96
:1028C00040F201400CF02BFB2378042B14BF0420B2
:1028D0004FF480400CF0A2F923780F4C0F48042BE2
:1028E00016BF04234FF480432046002201210CF040
:1028F000B4FA0B488023002201210CF0AEFA00222A
:102900004023114606480CF0A8FA064B01221A7023
:1029100010BD00BF1C190020000C0240000802403E
:10292000000002407C1A002010B540F201400CF07B
:10293000F6FA364B36481988364C890001390CF0C6
:1029400004FD354B1B78022B237856D1042B334BD7
:10295000334912BF04204FF4804019460CF074F93B
:102960002378042B14BF04204FF4804000210CF086
:1029700023F92378042B14BF04204FF480400CF07B
:102980003FF9234803210CF035FF214801220021A3
:102990000CF0E4FE1E48022201210CF0DFFE1C4870
:1029A0000F2200210CF0B2FE0F22194801210CF079
:1029B000ADFE174800210CF004FF012114480CF073
:1029C00000FF13480CF0AEFC2378144C1448042B81
:1029D0004FF000020CBF4FF480430423114608BFA0
:1029E00020460CF03AFA0022C02311460D480CF0A4
:1029F00034FA0D4B00221A7010BD042B14BF0420B2
:102A00004FF480400CF00AF9BBE700BF901A002099
:102A1000000400401C190020EE11002000080240B4
:102A2000000C0240000002407C1A00200C4B1A8867
:102A3000824210B513D00B4A0B4C18804FF48033F0
:102A4000B3FBF0F3136023780BB9FFF709FE23788B
:102A5000013B012B03D8BDE81040FFF765BF10BD57
:102A6000901A0020881A0020EE11002037B5554B2F
:102A700055481A88ADF804209B788DF8063001AAD5
:102A800003210BF037FD5048504C00224FF47021C9
:102A90000BF070FD4C48002206210BF081FD4A48E6
:102AA000002207210BF07CFD4948C02300220321AE
:102AB0000CF0D3F92378042B14BF04204FF480408A
:102AC0000CF0ACF8434B1B78042B6FD140F2014063
:102AD0000CF025FA404847210CF033FC4FF6FF710B
:102AE0003D480CF032FC3C480CF017FC07223A48F9
:102AF00006210CF02CFC062137480CF052FD36481C
:102B00000CF0F7FB34480CF003FC334801210CF0C7
:102B1000F5FD2378314C3248042B1ABF204604239C
:102B20004FF48043002201210CF097F9264800223F
:102B300002210BF0F2FC2448002203210BF0EDFCF3
:102B400021480BF003FDA4F56C4420460BF089FCF2
:102B50000028FAD002211C480BF087FC032105460F
:102B600019480BF082FC2A460446022116480BF055
:102B7000D4FC1548224603210BF0CFFCA5F5C06517
:102B8000114800224FF4A0210BF0F4FCB5F5806F42
:102B900004D8A4F5C064B4F5806F02D9102000F009
:102BA00015FF104B01221A7003B030BD0E4C0648C1
:102BB000228802210BF0B1FC2288034803210BF08C
:102BC000ACFCEEE764190308002001401C1900204A
:102BD00000000240EE11002000040040000C024002
:102BE000000802407C1A0020EC1100200A4B1A78E1
:102BF00082420FD0187005280CD8DFE800F00503DA
:102C000003070909FFF790BEFFF72ABDFFF756BE7D
:102C1000FFF72CBF704700BFEE11002008B504205D
:102C20000CF00CF8034800210CF06EFD024B012261
:102C30001A7008BD000400407C1A002008B54FF44B
:102C400080400BF0FBFF044800210CF05DFD034BBE
:102C500001221A7008BD00BF000400407C1A002049
:102C6000024B1B681A68024B1A607047F011002073
:102C70009C1A00202DE9F047141E05460F4616DC6D
:102C80004FF02008DB0720D50026B94626E00132A8
:102C9000B95C0029FBD1A242B4BFA41A0C4613F0C0
:102CA000020F0CBF4FF020084FF03008EAE7002277
:102CB000EEE72B6849461B6828469847013E002EE0
:102CC000F7DC24EAE476A41BDFE726465FFA88F9FE
:102CD000F5E72B6828461B689847D146CA461AF87C
:102CE000011B0029F5D1A2465FFA88F8BAF1000F5E
:102CF00006DCF01B4844002CA8BF0019BDE8F08793
:102D00002B6841461B68284698470AF1FF3AEDE7D1
:102D10002DE9FF470746DDE90C8A15461C4651B9E7
:102D20003023ADF804304246534601A9FFF7A2FF15
:102D300004B0BDE8F08723B10A2A2DD100292BDA8F
:102D400049420E9A00238DF80F303A3A0DF10F03E5
:102D5000B1FBF5F005FB1016092E88BFB61830360A
:102D60008D4203F1FF3903F8016C17D964B1B8F152
:102D7000000F16D01AF0020F13D03B682D211B68EC
:102D80003846984708F1FF38534642464946384688
:102D9000FFF770FF2044CBE70024D2E701464B4603
:102DA000D6E72D2209F8012C0024A3F10209EBE754
:102DB0000846FFF73BB900002DE9F04107468AB00D
:102DC0000E46144600254FF00A0833781BB92846F2
:102DD0000AB0BDE8F081252B72D17378002BF6D0B4
:102DE000252B06F101026AD02D2B06BFB21C012350
:102DF0000023164612F8011B302916D00022304657
:102E000010F8011BA1F1300C5FFA8CFEBEF1090F26
:102E10000ED9732910D121682D480434002908BF28
:102E200001463846FFF726FF21E043F00203E0E7C2
:102E300008FB02C20646E2E766292CD007D86329C0
:102E400034D0642915D058291BD00136BDE7752927
:102E50001AD07829F9D121466120CDE901300092BC
:102E600000231022096838460434FFF751FF054457
:102E7000EBE76120CDE901302146009201230A22CF
:102E8000F0E721464120E8E76120CDE90130214605
:102E900000920023F3E7216807A8CDE90423043456
:102EA000FFF780FADDE9042307A9BAE721688DF866
:102EB000181000218DF81910043406A9B1E7164640
:102EC0003B6831781B68384698470135BDE700BF3D
:102ED000801903080FB407B504AA064B52F8041B67
:102EE0006846CDE90032FFF767FF03B05DF804EBF9
:102EF00004B07047901903080EB403B503AA52F842
:102F0000041B0192FFF758FF02B05DF804EB03B019
:102F10007047000038B52B4C2B4D20460BF092FA31
:102F200020460BF094FA20460BF0B1FA012120461E
:102F30000BF050FB20460BF018FB20460BF021FB5A
:102F400020460BF089FA214A082120460BF0A4FA0A
:102F500020460BF005FB0022114628460BF0B5FD7C
:102F600028461B4A00210BF004FE2846194A00217E
:102F70000BF007FE28464FF4006200210BF0C1FD64
:102F800028464FF4005200210BF0AFFD6022284686
:102F900000210BF00AFE284600210BF0BEFD28465A
:102FA00000210BF0C3FD0022114628460BF0C7FD9F
:102FB000284600210BF0CBFD2046BDE838400BF041
:102FC000BBBA00BF0020014000640240801B00200B
:102FD0004C200140C01A0020884205DD914208DCE7
:102FE0009042A8BF10467047904203DC9142A8BFB0
:102FF00011460846704737B504686D4604F1300342
:10300000F03433F8102C33F8201C33F8300CFFF771
:10301000E3FF3033A34225F8020BF2D1BDF80230B2
:10302000BDF800001844BDF804301844BDF806305F
:103030001844C0F38F0003B030BD000008B50D4B3D
:1030400098420BD003F5806398420BD0A3F5006340
:1030500098420BD1072909DCC8B208BD012905DC5B
:103060000831F9E7052901DC0A31F5E70BF08EFAA2
:103070001020F2E700040240012370B593400D4692
:10308000044616469BB20022032128460BF0E5FEBB
:10309000054B246831462846E41AFFF7CFFFC4F3F6
:1030A0004F04024B185570BDC01A0020801B002031
:1030B0000D4A0E4B13600E4A991C11600D4A191DE2
:1030C00011600D4A991D11600C4A03F1080111604D
:1030D0000B4A03F10A0111600A4A03F10C01116065
:1030E000094A0E3313607047BC1A0020C01A002032
:1030F000B81A0020B41A0020B01A0020AC1A002020
:10310000A81A0020A41A0020A01A00201729F0B540
:103110000C464FF0000654D80B2988BF0C1F2A49D3
:103120004FF00C0C0CFB0412002592F805E0AE45A4
:1031300006D80CFB0411B1F9023007EE903A0DE00D
:1031400097799368012F33F815300AD183420BDB4E
:103150000C2262438A5E55B907EE902AF8EEE77AB0
:103160002CE00FB98342F3DD01351E46DFE7012F66
:103170000BBF181AC01A07EE900A07EE900A0BBF91
:103180009B1BF31AB8EEE76AB8EEE76A07EE903ACF
:103190000C2303FB0413B8EEE77A1B7906EE903A92
:1031A000F8EEE66A05FB032266EE866A07EE902AD1
:1031B00086EE876AF8EEE77A77EEC67A17EE900A1F
:1031C000F0BDDFED027AF9E7941903080000000072
:1031D0002DE9F041ADF5804D0BF026FC0BF008FC1D
:1031E0004FF480524FF0FF316846FFF7ACF8E846E5
:1031F0006C460025EEB23046FEF7AAFC68B93046B0
:10320000FEF770FC07463046FEF79CFCE0703B8BF7
:1032100023803046FEF704FC606001358F2D04F1F9
:103220000804E7D140F6FE7168460BF0EFFB0DF5A0
:103230004055094C094EC5F8F80F204658F8041BB4
:1032400004340BF0A5FDB442F7D1D5F8F80F0DF515
:10325000804DBDE8F08100BF0040000800800008FC
:10326000F8B50BF0E1FB0BF0C3FB154840F6FE711F
:103270000BF0CCFB134BD3F8F83F83421DD1002653
:1032800040F2FF77F40004F1006404F580442088E4
:10329000FEF718FC902805460AD0FEF759FC38B90D
:1032A00061682846FEF7E8FBE1782846FEF734FC23
:1032B0000136BE42E6D10020F8BD4FF0FF30FBE7FB
:1032C0000040000800700008114A124B30B553F856
:1032D000213052F821400268A342194602F1C80584
:1032E000A8BF2146A94206DCA342B8BF234603F18A
:1032F000C804A24202DD0160002030BD914202DD1F
:1033000001600120F9E79342FBDA0360F9E700BFAF
:103310000C1C0020041C00200F4B104A1B68126874
:1033200093421FBF801A642148439B1A18BF90FB29
:10333000F3F00B4B08BFDFED0B7A93ED007A1CBF67
:1033400007EE900AF8EEE77AB4EEE77AF1EE10FABB
:103350004CBF012000207047041C00200C1C0020E2
:10336000001C00200000C842012914DC0D4B0E4A4D
:1033700053F8213052F8212093420FD0801A642153
:1033800048439B1A90FBF3F007EE900AF8EEE77AB9
:1033900017EE900A7047DFED057AF9E7DFED047A62
:1033A000F6E700BF041C00200C1C002000000000F9
:1033B0000000C8420F4B93ED006AB5EE406AF1EE93
:1033C00010FA07EE900A07EE101A0ED027EE877A51
:1033D000C7EE066AB0EE087A36EE877AF4EE477AE0
:1033E000F1EE10FA58BFF0EE477A034BC3ED007AC6
:1033F000704700BF941B0020001C0020000000004C
:1034000008B506EE900A2DED028B07EE901A9FED9F
:10341000267AC2B1254BD3ED006A67EEA67AC7EED5
:10342000877A17EE900A0CF095FC1DA3D3E90023D0
:103430000CF030FB0CF0DEFF07EE900ABDEC028BC7
:1034400017EE900A08BD1A4BD3ED008AF4EEE68A17
:10345000F1EE10FA36EEE88A1ADD164BD3ED006A6B
:1034600067EEA67AC7EE877A17EE900A0CF072FC28
:103470000BA3D3E900230CF00DFB0CF0BBFF07EE10
:10348000100A27EE087AC7EE287AF1EE677AD5E7B8
:1034900028EE078A37EE687AC8EE077ACEE700BFD3
:1034A0009A9999999999B93F0000C842FC1B00204C
:1034B000001C0020F81B002007EE100AC1BBDFED46
:1034C0001E6A1E4B77EE667AB6EE006AF5EEC07A9B
:1034D000F1EE10FA44BFF1EE477A77EEE67AD3EDDB
:1034E000006A26EE866AB4EE676ADFED137AF1EEC3
:1034F00010FAA8BFB0EE677ADFED117AB0EE006A7D
:10350000E7EE067AF5EEC07AF1EE10FA0CD577EE1A
:10351000A67A9FED0C6A76EE866A86EE867A67EE6C
:10352000277A17EE900A7047C8BF77EEE67AF0E781
:10353000DFED057AF5E700BF00004842001C0020DF
:103540000000C8C20000C84200000000284B07EE7F
:10355000900A93ED007A274BB4EE677AF1EE10FAF9
:10356000C8BFB0EE677AD3ED007A234BF4EE477A0A
:10357000F1EE10FA48BFF0EE477A93ED007AB4EE20
:10358000E77AF1EE10FA11D80BDC1C4AD2ED006A92
:1035900037EE267AB4EEE77AF1EE10FAD8BFF0EE05
:1035A000477A17EE900AC3ED007A704718DDF1EE06
:1035B000046AB4EEE67AF1EE10FA11DDB4EEE77AC1
:1035C000F1EE10FAEDD40D4AD2ED006A37EE667ACC
:1035D000B4EEE77AF1EE10FA58BFF0EE477AE0E782
:1035E000B4EEE77AF1EE10FADBD4054AECE700BF5F
:1035F000D01B0020CC1B0020C01B0020C41B0020BF
:10360000C81B00200C4B1B681B1A07EE903A0B4B93
:10361000F8EEE77A93ED007A094B67EE877A93ED3F
:10362000007AF4EE477AF1EE10FACCBF17EE100AEA
:1036300017EE900A704700BFF01B0020E81B002027
:10364000D81B0020164A174B10B51968146804FAE5
:1036500001F31844144B001B1B6808411B1A07EEAA
:10366000903A124B106093ED007A114BF8EEE77A26
:1036700067EE877A93ED007A0E4BB4EEE77AF1EEBF
:1036800010FA58BFB0EE677AD3ED007AF4EEC77A3D
:10369000F1EE10FAD4BF17EE100A17EE900A10BD23
:1036A000DC1B0020E01B0020EC1B0020E81B00209E
:1036B000D41B0020F41B002042F21073984223DC3C
:1036C00007EE900A114BDFED126A93ED007A114B71
:1036D000F8EEE77A012067EE877A87EEA67A81ED29
:1036E000007AD3ED007AB4EE677AF1EE10FAC8BF33
:1036F000B0EE677AB5EEC07AF1EE10FA48BF9FEDF2
:10370000067A81ED007A704700207047E41B0020A4
:1037100000007A44D81B00200000000007EE100AC9
:1037200007EE901A77EEC77AB2EE047A67EE877AE0
:10373000D2ED006AF5EEC07AF1EE10FAF5EEC06A4D
:1037400048BFDFED127AF1EE10FA14DBF4EEE76A0F
:10375000F1EE10FA54BFB0EE677AB0EE667A82ED01
:10376000007A9FED0B7AF4EEC77AF1EE10FA4CBFB7
:10377000012000207047B1EE677AF4EE476AF1EE5F
:1037800010FAC8BFB0EE667AE9E700BF000000009B
:103790000000C842D9B1D0ED007ADFED0D6AF5EE38
:1037A000C07AF1EE10FAABBF0A4B0B4B93ED007AE7
:1037B00093ED007AABBFB8EEC77AB8EEC77A67EE82
:1037C000277A67EEC77A87EEA67A80ED007A70478F
:1037D0000000C842BC1B0020B81B002090ED007AFE
:1037E000B5EEC07AF1EE10FA07EE901AF1EE046A27
:1037F00017DB174B93ED006A77EEC67A67EEA67A71
:10380000F5EEC07AF1EE10FA48BFDFED127AB4EEB1
:10381000E77AF1EE10FA58BFB0EE677A80ED007AE1
:1038200070470D4B93ED006A77EEC67A67EEA67A85
:10383000F5EEC07AF1EE10FAC8BFDFED067AB4EE0D
:10384000E77AF1EE10FAD8BFB0EE677AE6E700BF8C
:10385000B41B002000000000B01B0020D0ED007A57
:103860001B4BF5EEC07AF1EE10FA06EE901A93EDCE
:10387000006A17DB174B93ED007A37EE667A27EE76
:10388000067AB5EEC07AF1EE10FA48BF9FED127AD3
:10389000F4EE477AF1EE10FAC8BFF0EE477AC0EDC9
:1038A000007A70470D4B93ED007A37EE667A27EE7B
:1038B000067AB5EEC07AF1EE10FAC8BF9FED067A2F
:1038C000F4EE477AF1EE10FA48BFF0EE477AE6E7F9
:1038D000A41B0020A81B002000000000AC1B00203F
:1038E000F0B5164B164D174C2F681E68236890EDE7
:1038F000007ACA1A07FA06F31A44D21BB5EEC07A48
:103900003241F1EE10FA2A6015DB642913DD0E4B0B
:103910001B689B1A1422534323EAE37307EE903A81
:10392000F8EEE77AB4EE677AF1EE10FAC8BFB0EEBF
:10393000677A80ED007A2160F0BD00BF981B0020FF
:103940008C1B0020901B00209C1B0020184B06EEB7
:10395000901A93ED007AF2EE007AE7EE276ADFED37
:10396000157A90ED007A66EEA76AB5EEC07AF1EEB0
:1039700010FAC3ED006A16DD0F4BD3ED007A77EE37
:10398000E67AF1EE006A67EEA67AF5EEC07AF1EE1D
:1039900010FA09D4B4EE677AF1EE10FAC8BFB0EEAF
:1039A000677A80ED007A70479FED047AF9E700BFEF
:1039B000881B00200000803DA01B002000000000AC
:1039C000014B1860704700BF301C002030B50B4C15
:1039D000235C93B90A4B1D687DB10A4B0A490B4A17
:1039E00018700B6802F8330002EBC3025560012225
:1039F000134403F0030322540B6030BD141C002059
:103A0000301C0020291C00202C1C0020F411002058
:103A10000023044A19460133152B02F8011BFAD181
:103A2000704700BF141C0020014B1878704700BF7E
:103A3000291C0020074B03EBC10210B41479064A7D
:103A400053F8313052F824205DF8044B0146034806
:103A5000FFF740BADC200308D0200308DE1E03086D
:103A600038B5094C636853B10025606830B114F86B
:103A7000081B0135FFF7DEFF042DF6D138BDBDE888
:103A800038400248FFF726BAF4110020EE1E030862
:103A900070B54520154EFDF7C3FF337800FA03F4E7
:103AA0004620FDF7BDFF33789840114B64251B6815
:103AB00094FBF5F490FBF5F00E4D641340135B0B93
:103AC000C5E9050442202B61FDF7B0FF06464320FF
:103AD000FDF7ACFF0023EB602B69C5E900605C4398
:103AE000013094FBF0F4AC6070BD00BF501C0020AE
:103AF000B4120020341C0020014B1878704700BF1E
:103B0000511C0020014B1860704700BF781C00203A
:103B1000064B074A1B68128800FA03F393FBF2F383
:103B2000044A5B131380044B186070476019030844
:103B3000181200205C1C0020741C0020054B1B6820
:103B40004FF47A70584344BF00F5FF501F304013C4
:103B5000704700BF541C002008B50F4800210BF02F
:103B600020FD0D4802210BF01CFD0B4804210BF039
:103B700018FD0A4B1B78052B0DD0074801210BF0CF
:103B800010FD054803210BF00CFDBDE8084002487C
:103B900005210BF006BD08BD000001401C190020E6
:103BA00010B50D4C002120460BF020FD20460221CF
:103BB0000BF01CFD204604210BF018FD20460121CE
:103BC0000BF014FD204603210BF010FD20460521CB
:103BD000BDE810400BF00ABD00000140124B1B78FD
:103BE000052B10B5114C16D1062111480BF0FEFC27
:103BF0002168032908D10F480BF0AEFC0321BDE872
:103C000010400C480BF0CDBC0429F7D10948032122
:103C10000BF07DFCF2E72368032BEFD0042B01D1DE
:103C20000221ECE710BD00BF1C1900206C1C002015
:103C3000000800400000014010B5224C2368834278
:103C400020D02060C8B1204B002211201A70FDF74F
:103C5000EDFE1E4B1E4A0B30C0B218701D4B1B6888
:103C60001B1A137007F014F92368013B052B04D8C5
:103C7000DFE803F0232318182309FFF791FF164B01
:103C800000221A6010BDFFF78BFF144803210BF0D0
:103C900088FC124802210BF084FCBDE810400F485C
:103CA0000BF0FEBCFFF77CFFFFF798FF0B480BF013
:103CB000F7FCBDE81040FFF7EBBEBDE81040FFF792
:103CC0004BBF00BF6C1C0020511C0020501C00206A
:103CD000701C002060190308541C002000000140E3
:103CE000224B70B5D3E90053064615201D44FDF75D
:103CF00097FE04461620FDF793FE231803EBD373BB
:103D00005B1083FB063005EBD57500284FEA65058F
:103D100004DA41F6FF729B1840F100005B0B43EAA6
:103D2000C043134E134CEA1A1D446D133378B5F596
:103D3000805FA8BF4FF480555213042B19BF204653
:103D4000022100214FF0804022EAE2720BF098FC41
:103D50003378042B2A4614BF20460221BDE8704068
:103D600014BF04214FF080400BF08ABC641C00207B
:103D70001C190020000800400F4B4203A0F5C06052
:103D800010B5B0F5806F1A604FEA41320C465A60A8
:103D900002D90E20FFF71AFEA4F5C064B4F5806FB7
:103DA00002D90F20FFF712FE1420FDF739FEBDE8FF
:103DB0001040FFF795BF00BF641C002007EE900A7B
:103DC000024BFEEEE97AC3ED037A7047341C002003
:103DD0002DE9F347674BDFF8B8811A889B788DF897
:103DE000063098F80030ADF80420074601261B2065
:103DF0000D469E40FDF71AFE10F0040440F0B0801E
:103E00001B20FDF713FE00F008000028234615BF15
:103E10000420022002210421574A1370507091702F
:103E20006DB10022114655484FF4E0630BF015F8D0
:103E3000002253484FF4604311460BF00EF84FF444
:103E400090600BF06CF84F484E4C20210BF056FA66
:103E50004C480BF04EFA4FF0000A5FFA8AF94946D7
:103E600020460BF03AFB0622494620460BF06FFA3B
:103E7000494620460BF0DFFB4946204600220BF066
:103E8000FFFB49462046002D6ED00BF065FB0AF182
:103E9000010ABAF1060FE0D13B4C3A480BF005FCA1
:103EA00023783848043B012B61D80BF008FC3548D7
:103EB0000BF00AFC2378052B07D11420FDF7B6FD83
:103EC000013002D12F480BF004FC2E480BF006FC09
:103ED0002C480BF008FC39462A480BF00DFC294809
:103EE00081210BF0F9F9274881210BF0EBF92548E6
:103EF00000210BF026FAB1B222480BF026FA98F80E
:103F00000030204808336B4413F80F1C0BF01BFAE9
:103F100001211C480BF0F2FB1A480BF003FA4FF496
:103F2000E0631648002202210AF097FF13484FF47D
:103F3000E06201210AF0B1FF4FF460431048002213
:103F400002210AF08AFF0E484FF4604201210AF074
:103F5000A4FF0E4B1868C0F34F3002B0BDE8F087E5
:103F600004230220002157E70BF0D1FA8FE70BF072
:103F7000A1FB9CE784210308581C0020000002409C
:103F800000040240000001401C190020B41200206F
:103F9000501C002010B5104C20460BF0C8F92046EC
:103FA0004FF400710BF09BF92046FF210BF0A4FBAE
:103FB00020464FF4FA510BF0C8F9204600220221A6
:103FC0000BF05EFB204601210BF098FB2046BDE87C
:103FD00010400BF0A7B900BF00000140014801F0FC
:103FE00003BD00BF341C002038B5DFED157A2DED80
:103FF000048B92ED018A92ED009A28EE278ADFED7C
:10400000117A04460846A9EE278A0D4606F07EFF7F
:1040100008EE900A284606F0ADFF07EE900A28EE5B
:10402000277A28EE288AA9EE287A2046A9EE678A00
:1040300084ED007A84ED018ABDEC048B38BD00BFAD
:104040003ACD933F3ACD133F70B504462DED028B28
:10405000084615460E4606F059FF08EE100A30468F
:1040600006F088FFD5ED017A95ED006A06EE900A1C
:1040700026EEE77A67EE887AA6EE087ABDEC028B28
:10408000E6EE267A2046DFED096A84ED007A67EED7
:10409000A67AF6EE006AB0EE676AA7EE666AD7EE19
:1040A000667A84ED016AC4ED027A70BDD7B35D3FD4
:1040B000014B1860704700BF58120020000000003C
:1040C0002DE9F041324F334EB7F900000BF030FECE
:1040D000314B044618680D460BF03CFE02460B4679
:1040E00000202E490BF0B8FF02460B462046294619
:1040F0000CF018F9002836D0DFF8BC80B6F9004083
:1041000098F80050A200002D3AD1B4F5C97F37DAF3
:10411000234B9FED247ADFED246A1344D3ED007A1C
:10412000224B67EE877A013487EEA67A24B2D3ED6C
:10413000007A67EE277A17EE900A0BF00BFE12A3B7
:10414000D3E900230BF088FF0CF054F9184B3480AE
:10415000C42C186005D125B10023013D338088F8B7
:10416000005000233B80B6F900003B88B0F5C97FC2
:1041700003F101033B80ACBF00200120BDE8F081CA
:104180000C4BC6E7AFF30080C3F5285C8FC2D53F68
:10419000C81C0020CA1C0020601200200000F03F54
:1041A0009421030800007A44000061454412002075
:1041B00058120020D82703081A1200207FB5094B97
:1041C0001A68094B01921B680293084B03A81968EF
:1041D00001AAFFF739FF0398054B186007B05DF897
:1041E00004FB00BF8C12002088120020A0120020C7
:1041F0002C1E00207FB5094B1A68094B01921B68E1
:104200000293084B03A8196801AAFFF71DFF049841
:10421000054B586007B05DF804FB00BF8C1200200E
:1042200088120020A01200202C1E00200000000098
:104230002DE9F04F2DED0A8BD14B97B01F681390ED
:1042400006460D46144614911592394613AA11A834
:10425000FFF7CAFECB4B119A1A60394613AA11A870
:10426000139614951594FFF7BFFEC74B129AC748D3
:104270001A6001F081FC07EE900AF5EE407AF1EE4B
:1042800010FA08BFDFEDC27AC24B17EE900AC3EDF9
:10429000007A0BF05FFDC04B044618680D460BF02A
:1042A00059FD02460B460BF0F7FB02460B46204633
:1042B00029460BF0EFFB224606460F462B460BF035
:1042C000CBFE32463B460BF09DFD22462B460BF0C3
:1042D000C3FE0CF08FF807EE900AF7EE008A77EE37
:1042E000A87ADFEDAE6AAE4B86EEA77A1860AD4BCA
:1042F00083ED007AAC4BD3E90023142A73F1000359
:104300000CDADFEDAA7AAA4827EE277AF0EE477A90
:10431000FEEEE97A17EE901AFEF7DCFDA54B93ED61
:10432000008AC8EE88BA1BEE900A0BF013FDA24B70
:10433000D3ED007A824617EE900ACDED027A8B46D5
:104340000BF008FD02460B46CDE9000184A1D1E93E
:1043500000010BF081FE52465B460BF09DFB0246CE
:104360000B46002095490BF077FE954B954A93ED4F
:1043700000BA884BD2ED00AA93ED009A814BCBEEA8
:10438000088A04460D4678A1D1E90001D3ED007AF0
:10439000DDE9002378EEA78A0BF05EFE0F468A491E
:1043A000D1ED009A064619EE900A0BF0D3FCE9EE27
:1043B0002A8A02460B46CDE90401304639460BF005
:1043C00021FD804618EE900ACAEE888A89460BF0D5
:1043D000C1FC02460B46404649460BF05DFB2246B7
:1043E0002B460BF00FFD0CF005F808907748664B54
:1043F00090ED00AAD3ED007A1AEE100A78EEA78AA3
:104400000BF0A8FCEBEE498A02460B46CDE906010B
:10441000304639460BF0F6FC064618EE900A0F4679
:104420000BF098FC02460B46304639460BF034FB45
:1044300022462B460BF0E6FC0BF0DCFF644B0990A8
:104440001868644F0BF086FC49A3D3E9002380462B
:1044500089460BF001FE52465B460BF01DFB0246FF
:104460000B4600205549DFF874B10BF0F5FD4A4BBF
:10447000DBED00CAD3ED008ACDE90C0119EE100A7C
:104480000BF068FC044618EE900A0D460BF062FC37
:1044900002460B460BF000FB02460B46204629461F
:1044A0000BF0F8FA97ED00CACDE90E011CEE100AE8
:1044B0000BF050FC30A3D3E90023CDE90A014046BC
:1044C00049460BF09FFC2AA3D3E900230BF0C4FD5F
:1044D000CCEE887A8046894617EE900A0BF03AFCBB
:1044E000DDE90A2304460D46DDE90E010BF08AFCE6
:1044F00002460B46204629460BF0CEFA42460446B9
:104500000D464B46DDE904010BF07CFC02460B46F0
:10451000204629460BF0C0FADDE90C230BF072FCB3
:104520000BF068FF2C4B824618601CEE900A0BF0D3
:1045300011FCCCEE087ACDE9040117EE900A0BF0DD
:1045400009FCDDE9042304460D46DDE90E010BF00C
:1045500059FC02460B462046294641E0AFF3008055
:10456000FA7E6ABC7493883F3FABCC94D6DFF23EB0
:10457000D2FBC6D79E59223FFA7E6ABC7493583F3D
:10458000A0120020C41C0020C01C00200017002026
:10459000BD378635BC1C00205C120020000048435B
:1045A000B81C0020B41C0020A81D002000007A4484
:1045B0008721030860120020042B03080000F03F4D
:1045C000E41C0020E81C0020EC1C0020F01C002053
:1045D00054120020F41C0020B01C0020F81C002005
:1045E0000BF058FA424604460D464B46DDE90601FB
:1045F0000BF008FC02460B46204629460BF04CFA0D
:10460000DDE90C230BF0FEFB0BF0F4FED24B18603F
:10461000D24B93ED00CA06461CEE100A0BF09AFB33
:10462000DDED027ACCEE277A04460D4677EEAB7AC2
:1046300017EE900A0BF08EFBBFA3D3E90023804650
:104640008946204629460BF007FD02460B464046A8
:1046500049460BF021FABAA3D3E9002380468946E4
:10466000204629460BF0F8FC02460B4640464946D8
:104670000BF012FA02460B460020B9490BF0ECFC95
:10468000AFA3D3E90023CDE90201DDE900010BF07E
:10469000B9FB02460B46204629460BF0DDFCAAA3D7
:1046A000D3E9002380468946204629460BF0D4FCF6
:1046B000CDE906011BEE100A0BF04CFB42464B46BF
:1046C0000BF0A0FBDDE9062304460D46DDE90401FD
:1046D0000BF098FB02460B46204629460BF0DCF90E
:1046E000C9EE887A04460D4617EE900A0BF032FBAD
:1046F00002460B46204629460BF0CEF969EE0A7AAF
:10470000044617EE900A0D460BF024FB02460B46BA
:10471000204629460BF0C0F9DDE902230BF072FBBD
:104720000BF068FE8F4B044618601AEE900A0BF0EF
:1047300011FB42464B460BF065FBDDE90623804644
:104740008946DDE90A010BF05DFB02460B46404657
:1047500049460BF0A1F9CAEE087A8046894617EE61
:10476000900A0BF0F7FA02460B46404649460BF01A
:1047700093F969EE297A804617EE900A89460BF084
:10478000E9FA02460B46404649460BF083F9DDE95B
:1047900002230BF037FB0BF02DFE734BDDED087A97
:1047A0001860724B724AC3ED007A0546DDED097A56
:1047B00070497148C2ED007A3E600560CBF800A0F8
:1047C00008980C600BF0C6FA8046204689460BF02C
:1047D000C1FA5BA3D3E900230BF014FB02460B469E
:1047E000404649460BF056F9DDE900230BF034FC56
:1047F0000BF000FE614B624E186009980BF0AAFAAC
:104800008046284689460BF0A5FA4DA3D3E900233C
:104810000BF0F8FA02460B46404649460BF03AF9CF
:10482000DDE900230BF018FC0BF0E4FD554BD6ED51
:10483000007A1860544B554A28EEA76AD3ED007AE7
:10484000534BD2ED006A93ED007A524BB5EEC06A3D
:10485000F1EE10FA67EE877A93ED007A67D5F5EE00
:10486000C07AF1EE10FA4CBFF1EE675AF0EE675ADB
:1048700075EEA66A37EE467A28EE278A9FED466ADD
:1048800083ED007AC8EE067A444B5F2093ED006A10
:10489000C2ED006A77EE867AC3ED007AC6EE877ABB
:1048A00017EE901AFDF7EEF83D4B18680BF052FA30
:1048B00002460B4626A1D1E900010BF0CDFB394B96
:1048C000044618680D460BF045FA02460B46204692
:1048D00029460BF0C1FB344B044618680D460BF01B
:1048E00039FA02460B46204629460BF0B5FB1F4B12
:1048F00097ED007AD3ED007A1D4BDBED006A67EE91
:10490000C77A93ED007AE6EE877A04460D4617EEF5
:10491000900A0BF01FFA22462B460BF073FA0BF0AD
:1049200069FD306017B0BDEC0A8BBDE8F08F76EE04
:10493000266A37EE877A9FE7D2FBC6D79E59223F79
:10494000FA7E6ABC7493583F0BB8DF888B2F8C3E7D
:104950003CDF4F8D976E723FAC1C0020B41C0020D2
:104960000000F03FA81C0020A41C0020E41C002034
:10497000E81C0020EC1C0020F01C00208C12002001
:10498000FC1C002088120020B01D00202C120020EA
:10499000901D00202812002000006145281D0020E5
:1049A000E82A0308FC1D0020002B0308000000007B
:1049B0002DE9F04FC84BC94A1B68DFF868B3C84CF3
:1049C000DBED007ADFF860A3C64D2DED028B13609E
:1049D000C54BC64A1B681360C54BC4ED007A93ED06
:1049E000007A77EE677A83B0F5EE407AF1EE10FA4E
:1049F00008BFDFEDC07A85ED007ACAED007A17EEC8
:104A0000900A0BF0A7F9BC4B0022804689460BF0B8
:104A1000F9F902460B4698A1D1E900010BF01CFB05
:104A200097A3D3E9002306460F46404649460BF0BC
:104A3000E9F906F0D9FA06F017FB02460B463046B4
:104A400039460BF0DFF990A3D3E900230BF024F8EB
:104A5000CDE90001DAF80000DFF8D0A20BF07AF916
:104A6000A54B0022804689460BF0CCF902460B4646
:104A700087A1D1E900010BF0EFFA87A3D3E9002366
:104A800006460F46404649460BF0BCF906F0ACFA24
:104A900006F0EAFA02460B46304639460BF0B2F908
:104AA0007FA3D3E900230AF0F7FF02460B46DDE9B6
:104AB00000010AF0EFFF7CA3D3E900230BF0A2F979
:104AC0000BF098FCDFF86892CAF80000D9F80000F3
:104AD000DFF84C820BF03EF902460B460020874976
:104AE0000BF0BAFA02460B4671A1D1E900010BF0B6
:104AF000B3FA834B064618680F460BF019F90B46BC
:104B00000246394630460BF07DF90BF073FC08EE97
:104B1000100A7C4BB5EEC08A1860F1EE10FA7A4BA1
:104B2000C8F800305EDD0BF015F963A3D3E900236C
:104B30000BF0E4FB002855D00023C8F80030DAF869
:104B400000000BF007F900224FF040430BF05AF938
:104B50000646D8F800000F460BF0FCF802460B465C
:104B6000304639460BF04EF9684B064618680F463A
:104B70000BF0F0F802460B46304639460BF06CFA63
:104B80000BF038FC624BD9ED006A1860614B07EE00
:104B9000900A93ED007A514B37EE677AD3ED005AC5
:104BA000524B87EE256A94ED007AA6EE267A93EDB5
:104BB000006A594B84ED007AD3ED005A4C4B8BEDD3
:104BC000007A77EEC67A87EEA56AD5ED007AE6EE32
:104BD000867AC5ED007AC3ED007A03B0BDEC028B96
:104BE000BDE8F08F18EE100A0BF0B4F832A3D3E949
:104BF000002306460F460BF095FB00289FD030A3FC
:104C0000D3E90023304639460BF078FB002896D0D4
:104C100029A3D3E90023304639460AF03BFF2AA3F3
:104C2000D3E9002306460F460BF016FA32463B4600
:104C30000BF0E8F824A3D3E900230BF00DFA0246A9
:104C40000B46002035490AF025FF0BF0B3FBFDF7BA
:104C500006FC0BF05DF802460B4600202F490AF0D7
:104C600019FF1BA3D3E900230BF0CCF80BF0C2FB18
:104C70002B4B186063E700BFC8D2872EA86FB93FDF
:104C80002B8716D9CEF7C33F91D739BCD6944A3F6C
:104C900002D4D4B2B5BEB83FD022DBF97E6ABC3FA5
:104CA0000011871167EA3A3FABAAAAAAAAAA404014
:104CB000FA7E6ABC7493883F658D7A884677703F28
:104CC000758E01D9EBDD7F3F20020EA14ACD6E3FEC
:104CD00000000000009AD04020120020A01C0020FC
:104CE000981C0020941C0020081D00209C1C002003
:104CF0000C1D0020ACC527370000F83F0000E03F46
:104D00001C120020881C002000D084464412002081
:104D1000801C00201C1D0020181D00200000F03FFA
:104D2000841C00205C120020901C00208C1C0020A1
:104D300060120020000000002DE9F04F2DED068BE1
:104D4000BB4BBC4FDFF830934FF0000B83B00646EF
:104D5000C3F800B03868924688460AF0FBFFCDE9F8
:104D60000001D9F800000AF0F5FFB34B04460D46E8
:104D70000022DDE900010BF045F822462B460BF03E
:104D80006BF99DA3D3E900230BF03CF8DDE9002388
:104D90000BF038F822462B460BF05EF996A3D3E9C8
:104DA00000230BF02FF896A3D3E900230AF074FE3A
:104DB000002200230AF070FE8FA3D3E900230BF03A
:104DC00021F822462B460BF047F90BF013FB9B4BC7
:104DD0005246186041463046FFF72AFA984BDFF8F2
:104DE0009C821860974B984E93F800A008EE100A2A
:104DF000BAF1000F35D1D9ED009A19EE900A0AF0F8
:104E0000A9FF044602460B460D467FA1D1E90001E9
:104E10000BF022F922462B460BF01EF90BF0EAFAB2
:104E200096ED009A894CC8F80000B4EE699AF1EE4C
:104E300010FA08EE900A40F0A5812368002B40F399
:104E4000C681FFF7B5FD2368013B012B236040F0CD
:104E50009A807F4B1A687F4B1A607F4B00221A7032
:104E600091E097ED00AA1AEE100A0AF073FF0246CD
:104E70000B4682468B460AF00FFE65A3D3E900235A
:104E800004460D460BF030FA002800F08280734B88
:104E90001A68022A7DD101221A60714B1B68C9F879
:104EA000003020465CA3D3E9002329460BF03AFAF0
:104EB000002800F0E580694B02221A60684B5B68AD
:104EC000C9F80030204656A3D3E9002329460BF049
:104ED00029FA002876D199ED009AD6ED009A19EEBC
:104EE000100A0AF037FF044602460B460D4646A15B
:104EF000D1E900010BF0B0F822462B460BF0ACF8DC
:104F00000BF078FAF4EE499AF1EE10FA08EE900AF6
:104F10004E4C24D0534BC3ED009A4E4B1A684C4B69
:104F20001A604D4B01221A704F4B18680AF012FF9D
:104F300002460B4600204D490BF08EF80BF012FA9A
:104F40004B4B2060D3ED007A86ED009A69EE277A0C
:104F5000002287EEA97A83ED007A464B1A60236817
:104F6000C8ED008A002B40F39B80FFF721FD2368EA
:104F7000012B06D1384A00211170354A1168354A93
:104F80001160013B2360386803B0BDEC068BBDE8BF
:104F9000F08F21A3D3E90023204629460BF0C2F964
:104FA00018B12E4B1B68012B85D01DA3D3E900231C
:104FB000204629460BF0B6F9002861D0274B1B6824
:104FC000022B5DD1254B03221A60254B9B68C9F843
:104FD0000030204614A3D3E9002329460BF084F9BE
:104FE00000283FF478AF1D4B02221A601C4B5B680F
:104FF000C9F800306FE700BFC3F5285C8FC2D53F0A
:105000009A999999997575409A9999999949794078
:105010000000000000C07B400000000000788E40CF
:1050200000000000007097400000000000C07740C2
:105030007C1C00205C1200200000E43F081D0020C2
:105040001C1D002024120020301D00201C120020F6
:10505000141D002058120020841D0020481200203A
:1050600030120020201D0020601200200000E03FD0
:105070000C1D0020241D002044120020181D0020BB
:10508000AEA3D3E90023204629460BF02DF90028D2
:105090003FF421AF9E4B1B68032B7FF41CAFA2E7AC
:1050A0009C4E96ED009AB5EEC09AF1EE10FA25DD11
:1050B00019EE100A0AF04EFE91A3D3E9002304462C
:1050C0000D46504659460AF09DFE02460B462046C4
:1050D00029460BF027F910B1FFF76AFC53E78AA3C2
:1050E000D3E90023504659460AF08CFE02460B468F
:1050F000204629460BF0F8F80028EDD1B5EEC09A0D
:10510000F1EE10FA23D519EE100A0AF023FE7CA363
:10511000D3E9002304460D46504659460AF072FE74
:1051200002460B46204629460BF0DEF80028D3D174
:1051300075A3D3E90023504659460AF063FE0246A0
:105140000B46204629460BF0EDF80028C4D1724BDF
:10515000D3ED007A714B78EE677AC3ED007A704B2D
:1051600093ED007A6F4B67EE877A93ED007A78EED5
:10517000878A87EEA87A77EE0A7AC7ED007AC6EDBD
:10518000007A00E7684B694A19681160C3F800B0FB
:10519000674A634B0121186811700AF0DBFD0B466A
:1051A0000246644900200AF057FF0BF0DBF8594B28
:1051B0002060D3ED007AC6ED009A69EEA77A87EEFB
:1051C000897A83ED007A5C4BC3F800A035E6514E36
:1051D00097ED00AA96ED009AF5EE409AF1EE10FADE
:1051E00017D14F4B93ED007A4E4B28EE078AD3ED43
:1051F000006A494BC8EE267AD3ED006A77EE8A7AC8
:10520000C7ED007AC6EEA87AA7EE279A86ED009A37
:10521000B9E6B5EEC09AF1EE10FA29DD19EE100AE2
:105220000AF098FD04461AEE100A0D460AF092FDA7
:1052300033A3D3E90023804689460AF0E3FD024602
:105240000B46204629460BF06DF800287FF444AF4A
:105250002DA3D3E90023404649460AF0D3FD024678
:105260000B46204629460BF03FF800287FF434AF68
:10527000B5EEC09AF1EE10FA29D519EE100A0AF02F
:1052800069FD04461AEE100A0D460AF063FD1CA3E0
:10529000D3E90023804689460AF0B4FD02460B4656
:1052A000204629460BF020F800287FF415AF16A3FE
:1052B000D3E90023404649460AF0A4FD02460B46C6
:1052C000204629460BF02EF800287FF405AF124B3C
:1052D000D3ED007A114B38EE678A83ED008A104BCC
:1052E000D3ED007A0F4B28EE278AD3ED007A78EEC3
:1052F000A78AC8EE287A77EE8A7A3EE7AFF3008075
:10530000CDCCCCCCCCCCF03F666666666666EE3F14
:10531000481200200C1D0020081D00202C1D00201C
:10532000601200202012002058120020141D0020BE
:10533000841D00200000E03F241D0020000000002C
:1053400000C07740054B064A1B681360054A13608E
:10535000054B1A68054B1A60704700BF44120020C5
:10536000301D0020201D002020120020A01C002045
:1053700008B52DED028B08EE100A0AF0EBFCF2EEF8
:10538000087AB4EEE78AF1EE10FA12DC16A3D3E93C
:1053900000230AF07FFB16A3D3E900230AF032FDB5
:1053A0000F4B00220AF078FB0BF024F8BDEC028BC7
:1053B00008BD0C4B00220AF06DFB05A3D3E90023C6
:1053C0000AF020FD04A3D3E90023EBE7AFF300804C
:1053D000156CC1166CC1C6BF666666666666064019
:1053E0000000084000002840F6285C8FC2F5E83F26
:1053F0004512586FCC4092BF08B52DED028B08EED8
:10540000100A0AF0A7FCF2EE0A7AB4EEE78AF1EE8F
:1054100010FA13DC15A3D3E900230AF03BFB15A314
:10542000D3E900230AF0EEFC14A3D3E900230AF029
:1054300033FB0AF0DFFFBDEC028B08BD0A4B0022F4
:105440000AF028FB04A3D3E900230AF0DBFC04A341
:10545000D3E90023EBE700BF0AD7A3703D0AC7BF1B
:10546000333333333333074000002A40F6285C8F50
:10547000C2F5E83F20AA0EBF68C290BFCDCCCCCC0D
:10548000CCCC08400000000008B52DED028B08EEE2
:10549000100A0AF05FFCF2EE0E7AB4EEE78AF1EE43
:1054A00010FA13DC15A3D3E900230AF0F3FA15A3CD
:1054B000D3E900230AF0A6FC14A3D3E900230AF0E1
:1054C000EBFA0AF097FFBDEC028B08BD0A4B0022F5
:1054D0000AF0E0FA04A3D3E900230AF093FC04A342
:1054E000D3E90023EBE700BFCDCCCCCCCCCCD4BFF0
:1054F000CDCCCCCCCCCC084000002E40F6285C8F24
:10550000C2F5E83FBF0012C2F3CD7CBF9A999999CA
:10551000999909400000000008B52DED028B08EEB6
:10552000100A0AF017FCF3EE027AB4EEE78AF1EE05
:1055300010FA13DC15A3D3E900230AF0ABFA15A384
:10554000D3E900230AF05EFC14A3D3E900230AF098
:10555000A3FA0AF04FFFBDEC028B08BD0A4B0022F4
:105560000AF098FA04A3D3E900230AF04BFC04A341
:10557000D3E90023EBE700BF9A9999999999F1BF74
:10558000CDCCCCCCCCCC084000003240F6285C8F8F
:10559000C2F5E83F2FF326A14AC987BF6666666653
:1055A00066660A40704700002DE9F84FD64BD74E8B
:1055B0002DED088BD3ED00AAD54BD3ED007A6AEE22
:1055C000A77ABAEE04BA17EE900A0AF0C3FBD14BE1
:1055D00000220AF041FDC0A3D3E900230AF03CFDFC
:1055E000044630680D460AF0B5FB0B4602462946D4
:1055F00020460AF051FA0AF0FDFEC74B3060D3EDA9
:10560000008AF4EECB8AF1EE10FA0446B2EE04AA58
:1056100016DBF5EEC08AF1EE10FA11D5FFF7A8FE01
:1056200008EE100A2046FFF7E7FE07EE900A77EE35
:10563000C87A87EE8A7A78EE8A7AA7EE278A1BE004
:10564000F5EEC08AF1EE10FAC0F2CB80F4EECA8A11
:10565000F1EE10FA40F1C5802046FFF7CDFE08EECE
:10566000100A2046FFF710FF07EE900A77EEC87A7F
:1056700087EE8A7AA8EE878A20460AF06BFBA74B52
:1056800000220AF0E9FCA64B00220AF0BBFB02460E
:105690000B460020A2490AF0FDF9A14B00220AF0B6
:1056A000DBFC0AF0A7FE0AF055FB8DA3D3E900232B
:1056B00004460D460AF018FE002840F0BF8088A37B
:1056C000D3E90023204629460AF0E4F986A3D3E96A
:1056D00000230AF097FB934B00220AF0DDF90AF051
:1056E00089FE914B002209EE100A294620460AF055
:1056F00089FB8E4B00220AF0CFF90AF07BFEF4EE14
:10570000CB8AF1EE10FA09EE900AC0F2A080F5EE15
:10571000C08AF1EE10FA40F19A80854B00222046B3
:1057200029460AF06FFB834B00220AF0B5F90AF014
:1057300061FE07EE900A39EE679A78EE8A8A89EE62
:105740000A7AE7EE287AB0EE679A18EE100A0AF0A5
:1057500001FB794B002282468B460AF053FB06463A
:1057600019EE100A0F460AF0F5FA61A3D3E90023F7
:105770000AF048FB674B00220AF06EFC80461AEEE6
:10578000900A89460AF0E6FA02460B464046494628
:105790000AF038FB02460B46304639460AF07AF9E1
:1057A0000AF028FE654B06461860594652A3D3E915
:1057B000002350460AF098FD10B1614B00221A7088
:1057C0004FA3D3E90023204629460AF0ABFDBDECE8
:1057D000088B00385B4B18BF012018703046BDE8BD
:1057E000F88FF4EECA8AF1EE10FAF3EE097A17DBBD
:1057F000F4EEE78AF1EE10FA12D52046FFF744FEE8
:1058000008EE100A2046FFF787FE07EE900A77EEB3
:10581000C87AF2EE0E6A87EEA67A78EECA7A0CE7BC
:10582000F4EEE78AF1EE10FA05DB2046FFF774FE8E
:1058300008EE100A20E7B0EE088A1DE7424B00226E
:10584000204629460AF0DEFA3A4B002245E7F5EEFB
:10585000C08AF1EE10FA0BDBF4EECA8AF1EE10FA10
:1058600006D579EEC99AC9EE8A7AA8EEA79A6CE7AE
:10587000364B0022204629460AF0C4FA344B002257
:105880000AF00AF90AF0B6FDF4EECA8AF1EE10FA4F
:1058900009EE100AF3EE097A11DBF4EEE78AF1EE75
:1058A00010FA0CD539EE699AF2EE0E7A89EE277A63
:1058B00078EECA7AB0EE699AA7EE279A45E7F4EE39
:1058C000E78AF1EE10FAF3EE097AB8BFB0EE679A04
:1058D0003BE700BFAFF30080000000000020AC40B9
:1058E0009A9999999999C93FA2D2913D035119C0AA
:1058F000FCA9F1D24D62503F33333333333303408D
:10590000B81E85EB51B8EE3FB01D002050120020AC
:1059100060120020000008404C120020008033403C
:105920000000594000002E40000014C00000244038
:10593000000020C00000394000005540901D0020AC
:10594000341D00205C1D0020000024C0000004C0A5
:10595000000014407047000038B51B4B1B4AD3EDC4
:10596000007A1B4BB0EE677ABEEEE97A83ED007ADF
:10597000184BC3ED007A184B1A60184B18680AF0E0
:10598000E9F902460B4604460D460BA1D1E9000198
:105990000AF062FB0AF02EFD114B224618602B46DE
:1059A00007A1D1E900010AF057FB0AF023FD0D4BD6
:1059B000186038BDAFF30080CDCCCCCCCCCC10403F
:1059C0006666666666662240541200200448B42E5D
:1059D000881D0020581D0020401D0020601200205E
:1059E0003C1D0020381D002000220121C0E90022BA
:1059F000C0E90222C0E904128261704700220260FD
:105A00000261C260034A044942614FF064528160FE
:105A10004260704717B7D13895BFD63300000000F9
:105A20002DE9D0432DED048BDDED0A6AD0ED057A2A
:105A300090ED038ADDED0B9A09EE103AC9EE265A75
:105A40004BA7D7E90067044607EE102A37EE677ABE
:105A500006EE101AE5EE877AC0ED057A67EEA67AB3
:105A600086EE277AA7EE098A77EE297A80ED007A0A
:105A7000C0ED017A18EE100A0AF06CF932463B4686
:105A8000804689460AF044FCE0BBB5EEC08AF1EEE0
:105A900010FA42D4D4ED048A84ED038AE9EE298A0F
:105AA00033A7D7E9006718EE900A0AF053F9324697
:105AB0003B46804689460AF02BFCA8BBF5EEC08A1F
:105AC000F1EE10FA3BD42AA7D7E9006738EE288A0E
:105AD000C4ED048A18EE100A0AF03CF932463B463F
